{"contracts/NfcPosPaymentHub.sol":{"NfcPosPaymentHub":{"abi":[{"inputs":[{"internalType":"address","name":"initialOwner","type":"address"},{"internalType":"address","name":"initialFeeRecipient","type":"address"},{"internalType":"uint16","name":"initialFeeBps","type":"uint16"}],"stateMutability":"nonpayable","type":"constructor"},{"inputs":[],"name":"AmountZero","type":"error"},{"inputs":[],"name":"InvalidFeeBps","type":"error"},{"inputs":[],"name":"InvalidInvoiceId","type":"error"},{"inputs":[],"name":"InvalidRecipient","type":"error"},{"inputs":[],"name":"InvoiceAlreadySettled","type":"error"},{"inputs":[],"name":"MerchantInactive","type":"error"},{"inputs":[{"internalType":"address","name":"owner","type":"address"}],"name":"OwnableInvalidOwner","type":"error"},{"inputs":[{"internalType":"address","name":"account","type":"address"}],"name":"OwnableUnauthorizedAccount","type":"error"},{"inputs":[],"name":"ReentrancyGuardReentrantCall","type":"error"},{"inputs":[{"internalType":"address","name":"token","type":"address"}],"name":"SafeERC20FailedOperation","type":"error"},{"anonymous":false,"inputs":[{"indexed":true,"internalType":"address","name":"merchant","type":"address"},{"indexed":false,"internalType":"bool","name":"active","type":"bool"},{"indexed":false,"internalType":"address","name":"payout","type":"address"},{"indexed":false,"internalType":"string","name":"metadataURI","type":"string"}],"name":"MerchantConfigured","type":"event"},{"anonymous":false,"inputs":[{"indexed":true,"internalType":"address","name":"previousOwner","type":"address"},{"indexed":true,"internalType":"address","name":"newOwner","type":"address"}],"name":"OwnershipTransferStarted","type":"event"},{"anonymous":false,"inputs":[{"indexed":true,"internalType":"address","name":"previousOwner","type":"address"},{"indexed":true,"internalType":"address","name":"newOwner","type":"address"}],"name":"OwnershipTransferred","type":"event"},{"anonymous":false,"inputs":[{"indexed":true,"internalType":"bytes32","name":"invoiceId","type":"bytes32"},{"indexed":true,"internalType":"address","name":"merchant","type":"address"},{"indexed":true,"internalType":"address","name":"payer","type":"address"},{"indexed":false,"internalType":"address","name":"token","type":"address"},{"indexed":false,"internalType":"uint256","name":"grossAmount","type":"uint256"},{"indexed":false,"internalType":"uint256","name":"feeAmount","type":"uint256"},{"indexed":false,"internalType":"bytes32","name":"payerUserHash","type":"bytes32"}],"name":"PaymentRecorded","type":"event"},{"anonymous":false,"inputs":[{"indexed":false,"internalType":"uint16","name":"feeBps","type":"uint16"},{"indexed":true,"internalType":"address","name":"feeRecipient","type":"address"}],"name":"PlatformFeeUpdated","type":"event"},{"inputs":[],"name":"acceptOwnership","outputs":[],"stateMutability":"nonpayable","type":"function"},{"inputs":[{"internalType":"address","name":"merchant","type":"address"},{"internalType":"bool","name":"active","type":"bool"},{"internalType":"address","name":"payout","type":"address"},{"internalType":"string","name":"metadataURI","type":"string"}],"name":"configureMerchant","outputs":[],"stateMutability":"nonpayable","type":"function"},{"inputs":[],"name":"feeRecipient","outputs":[{"internalType":"address","name":"","type":"address"}],"stateMutability":"view","type":"function"},{"inputs":[{"internalType":"address","name":"","type":"address"}],"name":"merchants","outputs":[{"internalType":"bool","name":"active","type":"bool"},{"internalType":"address","name":"payout","type":"address"},{"internalType":"string","name":"metadataURI","type":"string"}],"stateMutability":"view","type":"function"},{"inputs":[],"name":"owner","outputs":[{"internalType":"address","name":"","type":"address"}],"stateMutability":"view","type":"function"},{"inputs":[{"internalType":"bytes32","name":"invoiceId","type":"bytes32"},{"internalType":"address","name":"merchant","type":"address"},{"internalType":"address","name":"token","type":"address"},{"internalType":"uint256","name":"amount","type":"uint256"},{"internalType":"bytes32","name":"payerUserHash","type":"bytes32"}],"name":"payErc20","outputs":[],"stateMutability":"nonpayable","type":"function"},{"inputs":[{"internalType":"bytes32","name":"invoiceId","type":"bytes32"},{"internalType":"address","name":"merchant","type":"address"},{"internalType":"bytes32","name":"payerUserHash","type":"bytes32"}],"name":"payNative","outputs":[],"stateMutability":"payable","type":"function"},{"inputs":[],"name":"pendingOwner","outputs":[{"internalType":"address","name":"","type":"address"}],"stateMutability":"view","type":"function"},{"inputs":[],"name":"platformFeeBps","outputs":[{"internalType":"uint16","name":"","type":"uint16"}],"stateMutability":"view","type":"function"},{"inputs":[],"name":"renounceOwnership","outputs":[],"stateMutability":"nonpayable","type":"function"},{"inputs":[{"internalType":"uint16","name":"nextFeeBps","type":"uint16"},{"internalType":"address","name":"nextFeeRecipient","type":"address"}],"name":"setPlatformFee","outputs":[],"stateMutability":"nonpayable","type":"function"},{"inputs":[{"internalType":"bytes32","name":"","type":"bytes32"}],"name":"settledInvoiceIds","outputs":[{"internalType":"bool","name":"","type":"bool"}],"stateMutability":"view","type":"function"},{"inputs":[{"internalType":"address","name":"newOwner","type":"address"}],"name":"transferOwnership","outputs":[],"stateMutability":"nonpayable","type":"function"}],"evm":{"bytecode":{"linkReferences":{},"object":"60803461016457601f610fa838819003918201601f191683019291906001600160401b038411838510176101695781606092849260409687528339810103126101645761004b8161017f565b90826100596020830161017f565b9101519161ffff8316809303610164576001600160a01b0390811690811561014c5760018060a01b0319918260015416600155806000549384161760005581865193167f8be0079c531659141344cd1fd0a4f28419497f9722a3daafe3b4186f6b6457e0600080a360017f9b779b17422d0df92223018b32b4d1fa46e071723d6817e2486d003becc55f005582161561013d57506103e8821161012c57600480546001600160b01b03191660109290921b62010000600160b01b03169190911791909117905551610e1490816101948239f35b8251638bff87cf60e01b8152600490fd5b634e46966960e11b8152600490fd5b8451631e4fbdf760e01b815260006004820152602490fd5b600080fd5b634e487b7160e01b600052604160045260246000fd5b51906001600160a01b03821682036101645756fe60806040908082526004918236101561001757600080fd5b600092833560e01c92836322dcd13e14610ac95750826332278aa7146108a5578263387d87cc146106fb57826346904840146106ce57826361078d9f146103f2578263715018a61461038d57826379ba50971461030b5782638da5cb5b146102e3578263a43393cf146102b5578263ccad5ff8146101f557508163e30c3978146101c8578163ee14e93914610125575063f2fde38b146100b657600080fd5b34610122576020366003190112610122576100cf610b18565b6100d7610db2565b600180546001600160a01b0319166001600160a01b0392831690811790915582549091167f38d16b8cac22d99fc7c124b9cd0de2d3fa1faef420bfe791d8c362d765e227008380a380f35b80fd5b8234610122576020906020600319360112610122576001600160a01b03918391908361014f610b18565b168252600260205282822091606061016b600185549501610bbc565b948051968560ff8997161515875260081c166020860152840152835191826060850152815b8381106101b157505060808094508284010152601f80199101168101030190f35b808601820151878201608001528694508101610190565b9050346101f157816003193601126101f15760015490516001600160a01b039091168152602090f35b5080fd5b9150346102b157806003193601126102b15781359061ffff82168092036102ad5761021e610ae7565b92610227610db2565b6103e8831161029f576001600160a01b0384169384156102905781546001600160b01b031916841760109190911b62010000600160b01b0316179055519081527f04cbaf3a769658c1208911a3a9491c7e3474c8035ea4d9435fb608c1cce663bc90602090a280f35b509051634e46966960e11b8152fd5b9051638bff87cf60e01b8152fd5b8380fd5b8280fd5b909150346102b15760203660031901126102b1578160209360ff923581526003855220541690519015158152f35b8382346101f157816003193601126101f157905490516001600160a01b039091168152602090f35b9150346102b157826003193601126102b157600154916001600160a01b039133838516036103765750506001600160a01b031991821660015582543392811683178455167f8be0079c531659141344cd1fd0a4f28419497f9722a3daafe3b4186f6b6457e08380a380f35b60249250519063118cdaa760e01b82523390820152fd5b83346101225780600319360112610122576103a6610db2565b600180546001600160a01b03199081169091558154908116825581906001600160a01b03167f8be0079c531659141344cd1fd0a4f28419497f9722a3daafe3b4186f6b6457e08280a380f35b9150346102b15760803660031901126102b15761040d610b18565b90602435908115158092036106ca57610424610b02565b906064359067ffffffffffffffff958683116106c657366023840112156106c65782810135938785116106c257602484019360248636920101116106c25761046a610db2565b6001600160a01b0396871697881580156106b8575b6106a857835161048e81610b68565b8781526020988982019316938484526104a688610c97565b936104b387519586610b9a565b88855288888c8701378c8b8a870101528683019485528b8d5260028b52868d20925115159060ff845491610100600160a81b03905160081b169216906affffffffffffffffffffff60a81b161717825560018092019351908151938411610695575061051f8454610b2e565b601f811161064d575b5089908c601f85116001146105bd579380808b999560809c99957f38da1a93e557b34f9ddcae11ecb78014c2db2d715e681c61cb39c98b172a64719f9e9c9995606099946105b2575b50501b916000199060031b1c19161790555b81519889978852870152850152816060850152848401378181018301879052601f01601f19168101030190a280f35b015192503880610571565b9190601f9493941984168684528c8420935b8181106106385750938a9894937f38da1a93e557b34f9ddcae11ecb78014c2db2d715e681c61cb39c98b172a64719d9c9a9793606097938360809e9b971061061f575b505050811b019055610583565b015160001960f88460031b161c19169055388080610612565b82840151855593860193928d01928d016105cf565b848d528a8d20601f850160051c8101918c861061068b575b601f0160051c019083908e5b83821061068057505050610528565b81550183908e610671565b9091508190610665565b634e487b7160e01b8d526041905260248cfd5b8351634e46966960e11b81528390fd5b508782161561047f565b8880fd5b8780fd5b8480fd5b909150346102b157826003193601126102b15754905160109190911c6001600160a01b0316815260209150f35b909150346102b15760a03660031901126102b1578035610719610ae7565b92610722610b02565b926064359061072f610ce3565b831561089757811561088957838752600360205260ff838820541661087b5760018060a01b0380961694858852600260205283882096845161077081610b68565b61079260018a549a60ff8c161515845284602085019c60081c168c5201610bbc565b86820152511561086b57906107e894939291868a526003602052848a20600160ff198254161790556127106107cc61ffff85541686610c61565b0495869282806107dc8689610c8a565b92169b5116338c610d25565b81610853575b5050508151958652602086015284015260843560608401527f98af1d64b4f23a166017ddacaf1a7098cab13c894902579db8cdd22602707b6760803394a460017f9b779b17422d0df92223018b32b4d1fa46e071723d6817e2486d003becc55f005580f35b610863925460101c163389610d25565b3883816107ee565b845163308bb7ff60e21b81528390fd5b82516365c2160b60e01b8152fd5b82516365e52d5160e11b8152fd5b82516315a6bc4360e01b8152fd5b90915060603660031901126102b15780356108be610ae7565b6108c6610ce3565b8115610ab9573415610aa9578185526020936003855260ff8187205416610a9a5760018060a01b03809216938487526002865281872092825161090881610b68565b610929600186549660ff881615158452848b85019860081c16885201610bbc565b848201525115610a8b5784885260038752828820600160ff198254161790558780808061271061095e61ffff88541634610c61565b04978561096b8a34610c8a565b9151165af1610978610cb3565b5015610a4957879084806109ee575b50505050805194868652349086015284015260443560608401527f98af1d64b4f23a166017ddacaf1a7098cab13c894902579db8cdd22602707b6760803394a460017f9b779b17422d0df92223018b32b4d1fa46e071723d6817e2486d003becc55f005580f35b828092918192865460101c165af1610a04610cb3565b5015610a1257868184610987565b85606492519162461bcd60e51b83528201526013602482015272199959481d1c985b9cd9995c8819985a5b1959606a1b6044820152fd5b5085606492519162461bcd60e51b8352820152601860248201527f6d65726368616e74207472616e73666572206661696c656400000000000000006044820152fd5b50905163308bb7ff60e21b8152fd5b516365c2160b60e01b81528390fd5b83516365e52d5160e11b81528390fd5b83516315a6bc4360e01b81528390fd5b84346101225780600319360112610122575061ffff60209254168152f35b602435906001600160a01b0382168203610afd57565b600080fd5b604435906001600160a01b0382168203610afd57565b600435906001600160a01b0382168203610afd57565b90600182811c92168015610b5e575b6020831014610b4857565b634e487b7160e01b600052602260045260246000fd5b91607f1691610b3d565b6060810190811067ffffffffffffffff821117610b8457604052565b634e487b7160e01b600052604160045260246000fd5b90601f8019910116810190811067ffffffffffffffff821117610b8457604052565b90604051918260008254610bcf81610b2e565b90818452602094600191600181169081600014610c3f5750600114610c00575b505050610bfe92500383610b9a565b565b600090815285812095935091905b818310610c27575050610bfe9350820101388080610bef565b85548884018501529485019487945091830191610c0e565b92505050610bfe94925060ff191682840152151560051b820101388080610bef565b81810292918115918404141715610c7457565b634e487b7160e01b600052601160045260246000fd5b91908203918211610c7457565b67ffffffffffffffff8111610b8457601f01601f191660200190565b3d15610cde573d90610cc482610c97565b91610cd26040519384610b9a565b82523d6000602084013e565b606090565b7f9b779b17422d0df92223018b32b4d1fa46e071723d6817e2486d003becc55f006002815414610d135760029055565b604051633ee5aeb560e01b8152600490fd5b6040516323b872dd60e01b60009081526001600160a01b03938416600452938316602452604494909452909160209060648180855af1600160005114811615610d92575b83604052600060605215610d7c57505050565b635274afe760e01b835216600482015260249150fd5b6001811516610da857813b15153d151616610d69565b833d6000823e3d90fd5b6000546001600160a01b03163303610dc657565b60405163118cdaa760e01b8152336004820152602490fdfea2646970667358221220a37eea64ea7afaab94658fd2efc14d0df9fb5bbf9d5045d7577234d6f34f115364736f6c63430008180033","opcodes":"PUSH1 0x80 CALLVALUE PUSH2 0x164 JUMPI PUSH1 0x1F PUSH2 0xFA8 CODESIZE DUP2 SWAP1 SUB SWAP2 DUP3 ADD PUSH1 0x1F NOT AND DUP4 ADD SWAP3 SWAP2 SWAP1 PUSH1 0x1 PUSH1 0x1 PUSH1 0x40 SHL SUB DUP5 GT DUP4 DUP6 LT OR PUSH2 0x169 JUMPI DUP2 PUSH1 0x60 SWAP3 DUP5 SWAP3 PUSH1 0x40 SWAP7 DUP8 MSTORE DUP4 CODECOPY DUP2 ADD SUB SLT PUSH2 0x164 JUMPI PUSH2 0x4B DUP2 PUSH2 0x17F JUMP JUMPDEST SWAP1 DUP3 PUSH2 0x59 PUSH1 0x20 DUP4 ADD PUSH2 0x17F JUMP JUMPDEST SWAP2 ADD MLOAD SWAP2 PUSH2 0xFFFF DUP4 AND DUP1 SWAP4 SUB PUSH2 0x164 JUMPI PUSH1 0x1 PUSH1 0x1 PUSH1 0xA0 SHL SUB SWAP1 DUP2 AND SWAP1 DUP2 ISZERO PUSH2 0x14C JUMPI PUSH1 0x1 DUP1 PUSH1 0xA0 SHL SUB NOT SWAP2 DUP3 PUSH1 0x1 SLOAD AND PUSH1 0x1 SSTORE DUP1 PUSH1 0x0 SLOAD SWAP4 DUP5 AND OR PUSH1 0x0 SSTORE DUP2 DUP7 MLOAD SWAP4 AND PUSH32 0x8BE0079C531659141344CD1FD0A4F28419497F9722A3DAAFE3B4186F6B6457E0 PUSH1 0x0 DUP1 LOG3 PUSH1 0x1 PUSH32 0x9B779B17422D0DF92223018B32B4D1FA46E071723D6817E2486D003BECC55F00 SSTORE DUP3 AND ISZERO PUSH2 0x13D JUMPI POP PUSH2 0x3E8 DUP3 GT PUSH2 0x12C JUMPI PUSH1 0x4 DUP1 SLOAD PUSH1 0x1 PUSH1 0x1 PUSH1 0xB0 SHL SUB NOT AND PUSH1 0x10 SWAP3 SWAP1 SWAP3 SHL PUSH3 0x10000 PUSH1 0x1 PUSH1 0xB0 SHL SUB AND SWAP2 SWAP1 SWAP2 OR SWAP2 SWAP1 SWAP2 OR SWAP1 SSTORE MLOAD PUSH2 0xE14 SWAP1 DUP2 PUSH2 0x194 DUP3 CODECOPY RETURN JUMPDEST DUP3 MLOAD PUSH4 0x8BFF87CF PUSH1 0xE0 SHL DUP2 MSTORE PUSH1 0x4 SWAP1 REVERT JUMPDEST PUSH4 0x4E469669 PUSH1 0xE1 SHL DUP2 MSTORE PUSH1 0x4 SWAP1 REVERT JUMPDEST DUP5 MLOAD PUSH4 0x1E4FBDF7 PUSH1 0xE0 SHL DUP2 MSTORE PUSH1 0x0 PUSH1 0x4 DUP3 ADD MSTORE PUSH1 0x24 SWAP1 REVERT JUMPDEST PUSH1 0x0 DUP1 REVERT JUMPDEST PUSH4 0x4E487B71 PUSH1 0xE0 SHL PUSH1 0x0 MSTORE PUSH1 0x41 PUSH1 0x4 MSTORE PUSH1 0x24 PUSH1 0x0 REVERT JUMPDEST MLOAD SWAP1 PUSH1 0x1 PUSH1 0x1 PUSH1 0xA0 SHL SUB DUP3 AND DUP3 SUB PUSH2 0x164 JUMPI JUMP INVALID PUSH1 0x80 PUSH1 0x40 SWAP1 DUP1 DUP3 MSTORE PUSH1 0x4 SWAP2 DUP3 CALLDATASIZE LT ISZERO PUSH2 0x17 JUMPI PUSH1 0x0 DUP1 REVERT JUMPDEST PUSH1 0x0 SWAP3 DUP4 CALLDATALOAD PUSH1 0xE0 SHR SWAP3 DUP4 PUSH4 0x22DCD13E EQ PUSH2 0xAC9 JUMPI POP DUP3 PUSH4 0x32278AA7 EQ PUSH2 0x8A5 JUMPI DUP3 PUSH4 0x387D87CC EQ PUSH2 0x6FB JUMPI DUP3 PUSH4 0x46904840 EQ PUSH2 0x6CE JUMPI DUP3 PUSH4 0x61078D9F EQ PUSH2 0x3F2 JUMPI DUP3 PUSH4 0x715018A6 EQ PUSH2 0x38D JUMPI DUP3 PUSH4 0x79BA5097 EQ PUSH2 0x30B JUMPI DUP3 PUSH4 0x8DA5CB5B EQ PUSH2 0x2E3 JUMPI DUP3 PUSH4 0xA43393CF EQ PUSH2 0x2B5 JUMPI DUP3 PUSH4 0xCCAD5FF8 EQ PUSH2 0x1F5 JUMPI POP DUP2 PUSH4 0xE30C3978 EQ PUSH2 0x1C8 JUMPI DUP2 PUSH4 0xEE14E939 EQ PUSH2 0x125 JUMPI POP PUSH4 0xF2FDE38B EQ PUSH2 0xB6 JUMPI PUSH1 0x0 DUP1 REVERT JUMPDEST CALLVALUE PUSH2 0x122 JUMPI PUSH1 0x20 CALLDATASIZE PUSH1 0x3 NOT ADD SLT PUSH2 0x122 JUMPI PUSH2 0xCF PUSH2 0xB18 JUMP JUMPDEST PUSH2 0xD7 PUSH2 0xDB2 JUMP JUMPDEST PUSH1 0x1 DUP1 SLOAD PUSH1 0x1 PUSH1 0x1 PUSH1 0xA0 SHL SUB NOT AND PUSH1 0x1 PUSH1 0x1 PUSH1 0xA0 SHL SUB SWAP3 DUP4 AND SWAP1 DUP2 OR SWAP1 SWAP2 SSTORE DUP3 SLOAD SWAP1 SWAP2 AND PUSH32 0x38D16B8CAC22D99FC7C124B9CD0DE2D3FA1FAEF420BFE791D8C362D765E22700 DUP4 DUP1 LOG3 DUP1 RETURN JUMPDEST DUP1 REVERT JUMPDEST DUP3 CALLVALUE PUSH2 0x122 JUMPI PUSH1 0x20 SWAP1 PUSH1 0x20 PUSH1 0x3 NOT CALLDATASIZE ADD SLT PUSH2 0x122 JUMPI PUSH1 0x1 PUSH1 0x1 PUSH1 0xA0 SHL SUB SWAP2 DUP4 SWAP2 SWAP1 DUP4 PUSH2 0x14F PUSH2 0xB18 JUMP JUMPDEST AND DUP3 MSTORE PUSH1 0x2 PUSH1 0x20 MSTORE DUP3 DUP3 KECCAK256 SWAP2 PUSH1 0x60 PUSH2 0x16B PUSH1 0x1 DUP6 SLOAD SWAP6 ADD PUSH2 0xBBC JUMP JUMPDEST SWAP5 DUP1 MLOAD SWAP7 DUP6 PUSH1 0xFF DUP10 SWAP8 AND ISZERO ISZERO DUP8 MSTORE PUSH1 0x8 SHR AND PUSH1 0x20 DUP7 ADD MSTORE DUP5 ADD MSTORE DUP4 MLOAD SWAP2 DUP3 PUSH1 0x60 DUP6 ADD MSTORE DUP2 JUMPDEST DUP4 DUP2 LT PUSH2 0x1B1 JUMPI POP POP PUSH1 0x80 DUP1 SWAP5 POP DUP3 DUP5 ADD ADD MSTORE PUSH1 0x1F DUP1 NOT SWAP2 ADD AND DUP2 ADD SUB ADD SWAP1 RETURN JUMPDEST DUP1 DUP7 ADD DUP3 ADD MLOAD DUP8 DUP3 ADD PUSH1 0x80 ADD MSTORE DUP7 SWAP5 POP DUP2 ADD PUSH2 0x190 JUMP JUMPDEST SWAP1 POP CALLVALUE PUSH2 0x1F1 JUMPI DUP2 PUSH1 0x3 NOT CALLDATASIZE ADD SLT PUSH2 0x1F1 JUMPI PUSH1 0x1 SLOAD SWAP1 MLOAD PUSH1 0x1 PUSH1 0x1 PUSH1 0xA0 SHL SUB SWAP1 SWAP2 AND DUP2 MSTORE PUSH1 0x20 SWAP1 RETURN JUMPDEST POP DUP1 REVERT JUMPDEST SWAP2 POP CALLVALUE PUSH2 0x2B1 JUMPI DUP1 PUSH1 0x3 NOT CALLDATASIZE ADD SLT PUSH2 0x2B1 JUMPI DUP2 CALLDATALOAD SWAP1 PUSH2 0xFFFF DUP3 AND DUP1 SWAP3 SUB PUSH2 0x2AD JUMPI PUSH2 0x21E PUSH2 0xAE7 JUMP JUMPDEST SWAP3 PUSH2 0x227 PUSH2 0xDB2 JUMP JUMPDEST PUSH2 0x3E8 DUP4 GT PUSH2 0x29F JUMPI PUSH1 0x1 PUSH1 0x1 PUSH1 0xA0 SHL SUB DUP5 AND SWAP4 DUP5 ISZERO PUSH2 0x290 JUMPI DUP2 SLOAD PUSH1 0x1 PUSH1 0x1 PUSH1 0xB0 SHL SUB NOT AND DUP5 OR PUSH1 0x10 SWAP2 SWAP1 SWAP2 SHL PUSH3 0x10000 PUSH1 0x1 PUSH1 0xB0 SHL SUB AND OR SWAP1 SSTORE MLOAD SWAP1 DUP2 MSTORE PUSH32 0x4CBAF3A769658C1208911A3A9491C7E3474C8035EA4D9435FB608C1CCE663BC SWAP1 PUSH1 0x20 SWAP1 LOG2 DUP1 RETURN JUMPDEST POP SWAP1 MLOAD PUSH4 0x4E469669 PUSH1 0xE1 SHL DUP2 MSTORE REVERT JUMPDEST SWAP1 MLOAD PUSH4 0x8BFF87CF PUSH1 0xE0 SHL DUP2 MSTORE REVERT JUMPDEST DUP4 DUP1 REVERT JUMPDEST DUP3 DUP1 REVERT JUMPDEST SWAP1 SWAP2 POP CALLVALUE PUSH2 0x2B1 JUMPI PUSH1 0x20 CALLDATASIZE PUSH1 0x3 NOT ADD SLT PUSH2 0x2B1 JUMPI DUP2 PUSH1 0x20 SWAP4 PUSH1 0xFF SWAP3 CALLDATALOAD DUP2 MSTORE PUSH1 0x3 DUP6 MSTORE KECCAK256 SLOAD AND SWAP1 MLOAD SWAP1 ISZERO ISZERO DUP2 MSTORE RETURN JUMPDEST DUP4 DUP3 CALLVALUE PUSH2 0x1F1 JUMPI DUP2 PUSH1 0x3 NOT CALLDATASIZE ADD SLT PUSH2 0x1F1 JUMPI SWAP1 SLOAD SWAP1 MLOAD PUSH1 0x1 PUSH1 0x1 PUSH1 0xA0 SHL SUB SWAP1 SWAP2 AND DUP2 MSTORE PUSH1 0x20 SWAP1 RETURN JUMPDEST SWAP2 POP CALLVALUE PUSH2 0x2B1 JUMPI DUP3 PUSH1 0x3 NOT CALLDATASIZE ADD SLT PUSH2 0x2B1 JUMPI PUSH1 0x1 SLOAD SWAP2 PUSH1 0x1 PUSH1 0x1 PUSH1 0xA0 SHL SUB SWAP2 CALLER DUP4 DUP6 AND SUB PUSH2 0x376 JUMPI POP POP PUSH1 0x1 PUSH1 0x1 PUSH1 0xA0 SHL SUB NOT SWAP2 DUP3 AND PUSH1 0x1 SSTORE DUP3 SLOAD CALLER SWAP3 DUP2 AND DUP4 OR DUP5 SSTORE AND PUSH32 0x8BE0079C531659141344CD1FD0A4F28419497F9722A3DAAFE3B4186F6B6457E0 DUP4 DUP1 LOG3 DUP1 RETURN JUMPDEST PUSH1 0x24 SWAP3 POP MLOAD SWAP1 PUSH4 0x118CDAA7 PUSH1 0xE0 SHL DUP3 MSTORE CALLER SWAP1 DUP3 ADD MSTORE REVERT JUMPDEST DUP4 CALLVALUE PUSH2 0x122 JUMPI DUP1 PUSH1 0x3 NOT CALLDATASIZE ADD SLT PUSH2 0x122 JUMPI PUSH2 0x3A6 PUSH2 0xDB2 JUMP JUMPDEST PUSH1 0x1 DUP1 SLOAD PUSH1 0x1 PUSH1 0x1 PUSH1 0xA0 SHL SUB NOT SWAP1 DUP2 AND SWAP1 SWAP2 SSTORE DUP2 SLOAD SWAP1 DUP2 AND DUP3 SSTORE DUP2 SWAP1 PUSH1 0x1 PUSH1 0x1 PUSH1 0xA0 SHL SUB AND PUSH32 0x8BE0079C531659141344CD1FD0A4F28419497F9722A3DAAFE3B4186F6B6457E0 DUP3 DUP1 LOG3 DUP1 RETURN JUMPDEST SWAP2 POP CALLVALUE PUSH2 0x2B1 JUMPI PUSH1 0x80 CALLDATASIZE PUSH1 0x3 NOT ADD SLT PUSH2 0x2B1 JUMPI PUSH2 0x40D PUSH2 0xB18 JUMP JUMPDEST SWAP1 PUSH1 0x24 CALLDATALOAD SWAP1 DUP2 ISZERO ISZERO DUP1 SWAP3 SUB PUSH2 0x6CA JUMPI PUSH2 0x424 PUSH2 0xB02 JUMP JUMPDEST SWAP1 PUSH1 0x64 CALLDATALOAD SWAP1 PUSH8 0xFFFFFFFFFFFFFFFF SWAP6 DUP7 DUP4 GT PUSH2 0x6C6 JUMPI CALLDATASIZE PUSH1 0x23 DUP5 ADD SLT ISZERO PUSH2 0x6C6 JUMPI DUP3 DUP2 ADD CALLDATALOAD SWAP4 DUP8 DUP6 GT PUSH2 0x6C2 JUMPI PUSH1 0x24 DUP5 ADD SWAP4 PUSH1 0x24 DUP7 CALLDATASIZE SWAP3 ADD ADD GT PUSH2 0x6C2 JUMPI PUSH2 0x46A PUSH2 0xDB2 JUMP JUMPDEST PUSH1 0x1 PUSH1 0x1 PUSH1 0xA0 SHL SUB SWAP7 DUP8 AND SWAP8 DUP9 ISZERO DUP1 ISZERO PUSH2 0x6B8 JUMPI JUMPDEST PUSH2 0x6A8 JUMPI DUP4 MLOAD PUSH2 0x48E DUP2 PUSH2 0xB68 JUMP JUMPDEST DUP8 DUP2 MSTORE PUSH1 0x20 SWAP9 DUP10 DUP3 ADD SWAP4 AND SWAP4 DUP5 DUP5 MSTORE PUSH2 0x4A6 DUP9 PUSH2 0xC97 JUMP JUMPDEST SWAP4 PUSH2 0x4B3 DUP8 MLOAD SWAP6 DUP7 PUSH2 0xB9A JUMP JUMPDEST DUP9 DUP6 MSTORE DUP9 DUP9 DUP13 DUP8 ADD CALLDATACOPY DUP13 DUP12 DUP11 DUP8 ADD ADD MSTORE DUP7 DUP4 ADD SWAP5 DUP6 MSTORE DUP12 DUP14 MSTORE PUSH1 0x2 DUP12 MSTORE DUP7 DUP14 KECCAK256 SWAP3 MLOAD ISZERO ISZERO SWAP1 PUSH1 0xFF DUP5 SLOAD SWAP2 PUSH2 0x100 PUSH1 0x1 PUSH1 0xA8 SHL SUB SWAP1 MLOAD PUSH1 0x8 SHL AND SWAP3 AND SWAP1 PUSH11 0xFFFFFFFFFFFFFFFFFFFFFF PUSH1 0xA8 SHL AND OR OR DUP3 SSTORE PUSH1 0x1 DUP1 SWAP3 ADD SWAP4 MLOAD SWAP1 DUP2 MLOAD SWAP4 DUP5 GT PUSH2 0x695 JUMPI POP PUSH2 0x51F DUP5 SLOAD PUSH2 0xB2E JUMP JUMPDEST PUSH1 0x1F DUP2 GT PUSH2 0x64D JUMPI JUMPDEST POP DUP10 SWAP1 DUP13 PUSH1 0x1F DUP6 GT PUSH1 0x1 EQ PUSH2 0x5BD JUMPI SWAP4 DUP1 DUP1 DUP12 SWAP10 SWAP6 PUSH1 0x80 SWAP13 SWAP10 SWAP6 PUSH32 0x38DA1A93E557B34F9DDCAE11ECB78014C2DB2D715E681C61CB39C98B172A6471 SWAP16 SWAP15 SWAP13 SWAP10 SWAP6 PUSH1 0x60 SWAP10 SWAP5 PUSH2 0x5B2 JUMPI JUMPDEST POP POP SHL SWAP2 PUSH1 0x0 NOT SWAP1 PUSH1 0x3 SHL SHR NOT AND OR SWAP1 SSTORE JUMPDEST DUP2 MLOAD SWAP9 DUP10 SWAP8 DUP9 MSTORE DUP8 ADD MSTORE DUP6 ADD MSTORE DUP2 PUSH1 0x60 DUP6 ADD MSTORE DUP5 DUP5 ADD CALLDATACOPY DUP2 DUP2 ADD DUP4 ADD DUP8 SWAP1 MSTORE PUSH1 0x1F ADD PUSH1 0x1F NOT AND DUP2 ADD SUB ADD SWAP1 LOG2 DUP1 RETURN JUMPDEST ADD MLOAD SWAP3 POP CODESIZE DUP1 PUSH2 0x571 JUMP JUMPDEST SWAP2 SWAP1 PUSH1 0x1F SWAP5 SWAP4 SWAP5 NOT DUP5 AND DUP7 DUP5 MSTORE DUP13 DUP5 KECCAK256 SWAP4 JUMPDEST DUP2 DUP2 LT PUSH2 0x638 JUMPI POP SWAP4 DUP11 SWAP9 SWAP5 SWAP4 PUSH32 0x38DA1A93E557B34F9DDCAE11ECB78014C2DB2D715E681C61CB39C98B172A6471 SWAP14 SWAP13 SWAP11 SWAP8 SWAP4 PUSH1 0x60 SWAP8 SWAP4 DUP4 PUSH1 0x80 SWAP15 SWAP12 SWAP8 LT PUSH2 0x61F JUMPI JUMPDEST POP POP POP DUP2 SHL ADD SWAP1 SSTORE PUSH2 0x583 JUMP JUMPDEST ADD MLOAD PUSH1 0x0 NOT PUSH1 0xF8 DUP5 PUSH1 0x3 SHL AND SHR NOT AND SWAP1 SSTORE CODESIZE DUP1 DUP1 PUSH2 0x612 JUMP JUMPDEST DUP3 DUP5 ADD MLOAD DUP6 SSTORE SWAP4 DUP7 ADD SWAP4 SWAP3 DUP14 ADD SWAP3 DUP14 ADD PUSH2 0x5CF JUMP JUMPDEST DUP5 DUP14 MSTORE DUP11 DUP14 KECCAK256 PUSH1 0x1F DUP6 ADD PUSH1 0x5 SHR DUP2 ADD SWAP2 DUP13 DUP7 LT PUSH2 0x68B JUMPI JUMPDEST PUSH1 0x1F ADD PUSH1 0x5 SHR ADD SWAP1 DUP4 SWAP1 DUP15 JUMPDEST DUP4 DUP3 LT PUSH2 0x680 JUMPI POP POP POP PUSH2 0x528 JUMP JUMPDEST DUP2 SSTORE ADD DUP4 SWAP1 DUP15 PUSH2 0x671 JUMP JUMPDEST SWAP1 SWAP2 POP DUP2 SWAP1 PUSH2 0x665 JUMP JUMPDEST PUSH4 0x4E487B71 PUSH1 0xE0 SHL DUP14 MSTORE PUSH1 0x41 SWAP1 MSTORE PUSH1 0x24 DUP13 REVERT JUMPDEST DUP4 MLOAD PUSH4 0x4E469669 PUSH1 0xE1 SHL DUP2 MSTORE DUP4 SWAP1 REVERT JUMPDEST POP DUP8 DUP3 AND ISZERO PUSH2 0x47F JUMP JUMPDEST DUP9 DUP1 REVERT JUMPDEST DUP8 DUP1 REVERT JUMPDEST DUP5 DUP1 REVERT JUMPDEST SWAP1 SWAP2 POP CALLVALUE PUSH2 0x2B1 JUMPI DUP3 PUSH1 0x3 NOT CALLDATASIZE ADD SLT PUSH2 0x2B1 JUMPI SLOAD SWAP1 MLOAD PUSH1 0x10 SWAP2 SWAP1 SWAP2 SHR PUSH1 0x1 PUSH1 0x1 PUSH1 0xA0 SHL SUB AND DUP2 MSTORE PUSH1 0x20 SWAP2 POP RETURN JUMPDEST SWAP1 SWAP2 POP CALLVALUE PUSH2 0x2B1 JUMPI PUSH1 0xA0 CALLDATASIZE PUSH1 0x3 NOT ADD SLT PUSH2 0x2B1 JUMPI DUP1 CALLDATALOAD PUSH2 0x719 PUSH2 0xAE7 JUMP JUMPDEST SWAP3 PUSH2 0x722 PUSH2 0xB02 JUMP JUMPDEST SWAP3 PUSH1 0x64 CALLDATALOAD SWAP1 PUSH2 0x72F PUSH2 0xCE3 JUMP JUMPDEST DUP4 ISZERO PUSH2 0x897 JUMPI DUP2 ISZERO PUSH2 0x889 JUMPI DUP4 DUP8 MSTORE PUSH1 0x3 PUSH1 0x20 MSTORE PUSH1 0xFF DUP4 DUP9 KECCAK256 SLOAD AND PUSH2 0x87B JUMPI PUSH1 0x1 DUP1 PUSH1 0xA0 SHL SUB DUP1 SWAP7 AND SWAP5 DUP6 DUP9 MSTORE PUSH1 0x2 PUSH1 0x20 MSTORE DUP4 DUP9 KECCAK256 SWAP7 DUP5 MLOAD PUSH2 0x770 DUP2 PUSH2 0xB68 JUMP JUMPDEST PUSH2 0x792 PUSH1 0x1 DUP11 SLOAD SWAP11 PUSH1 0xFF DUP13 AND ISZERO ISZERO DUP5 MSTORE DUP5 PUSH1 0x20 DUP6 ADD SWAP13 PUSH1 0x8 SHR AND DUP13 MSTORE ADD PUSH2 0xBBC JUMP JUMPDEST DUP7 DUP3 ADD MSTORE MLOAD ISZERO PUSH2 0x86B JUMPI SWAP1 PUSH2 0x7E8 SWAP5 SWAP4 SWAP3 SWAP2 DUP7 DUP11 MSTORE PUSH1 0x3 PUSH1 0x20 MSTORE DUP5 DUP11 KECCAK256 PUSH1 0x1 PUSH1 0xFF NOT DUP3 SLOAD AND OR SWAP1 SSTORE PUSH2 0x2710 PUSH2 0x7CC PUSH2 0xFFFF DUP6 SLOAD AND DUP7 PUSH2 0xC61 JUMP JUMPDEST DIV SWAP6 DUP7 SWAP3 DUP3 DUP1 PUSH2 0x7DC DUP7 DUP10 PUSH2 0xC8A JUMP JUMPDEST SWAP3 AND SWAP12 MLOAD AND CALLER DUP13 PUSH2 0xD25 JUMP JUMPDEST DUP2 PUSH2 0x853 JUMPI JUMPDEST POP POP POP DUP2 MLOAD SWAP6 DUP7 MSTORE PUSH1 0x20 DUP7 ADD MSTORE DUP5 ADD MSTORE PUSH1 0x84 CALLDATALOAD PUSH1 0x60 DUP5 ADD MSTORE PUSH32 0x98AF1D64B4F23A166017DDACAF1A7098CAB13C894902579DB8CDD22602707B67 PUSH1 0x80 CALLER SWAP5 LOG4 PUSH1 0x1 PUSH32 0x9B779B17422D0DF92223018B32B4D1FA46E071723D6817E2486D003BECC55F00 SSTORE DUP1 RETURN JUMPDEST PUSH2 0x863 SWAP3 SLOAD PUSH1 0x10 SHR AND CALLER DUP10 PUSH2 0xD25 JUMP JUMPDEST CODESIZE DUP4 DUP2 PUSH2 0x7EE JUMP JUMPDEST DUP5 MLOAD PUSH4 0x308BB7FF PUSH1 0xE2 SHL DUP2 MSTORE DUP4 SWAP1 REVERT JUMPDEST DUP3 MLOAD PUSH4 0x65C2160B PUSH1 0xE0 SHL DUP2 MSTORE REVERT JUMPDEST DUP3 MLOAD PUSH4 0x65E52D51 PUSH1 0xE1 SHL DUP2 MSTORE REVERT JUMPDEST DUP3 MLOAD PUSH4 0x15A6BC43 PUSH1 0xE0 SHL DUP2 MSTORE REVERT JUMPDEST SWAP1 SWAP2 POP PUSH1 0x60 CALLDATASIZE PUSH1 0x3 NOT ADD SLT PUSH2 0x2B1 JUMPI DUP1 CALLDATALOAD PUSH2 0x8BE PUSH2 0xAE7 JUMP JUMPDEST PUSH2 0x8C6 PUSH2 0xCE3 JUMP JUMPDEST DUP2 ISZERO PUSH2 0xAB9 JUMPI CALLVALUE ISZERO PUSH2 0xAA9 JUMPI DUP2 DUP6 MSTORE PUSH1 0x20 SWAP4 PUSH1 0x3 DUP6 MSTORE PUSH1 0xFF DUP2 DUP8 KECCAK256 SLOAD AND PUSH2 0xA9A JUMPI PUSH1 0x1 DUP1 PUSH1 0xA0 SHL SUB DUP1 SWAP3 AND SWAP4 DUP5 DUP8 MSTORE PUSH1 0x2 DUP7 MSTORE DUP2 DUP8 KECCAK256 SWAP3 DUP3 MLOAD PUSH2 0x908 DUP2 PUSH2 0xB68 JUMP JUMPDEST PUSH2 0x929 PUSH1 0x1 DUP7 SLOAD SWAP7 PUSH1 0xFF DUP9 AND ISZERO ISZERO DUP5 MSTORE DUP5 DUP12 DUP6 ADD SWAP9 PUSH1 0x8 SHR AND DUP9 MSTORE ADD PUSH2 0xBBC JUMP JUMPDEST DUP5 DUP3 ADD MSTORE MLOAD ISZERO PUSH2 0xA8B JUMPI DUP5 DUP9 MSTORE PUSH1 0x3 DUP8 MSTORE DUP3 DUP9 KECCAK256 PUSH1 0x1 PUSH1 0xFF NOT DUP3 SLOAD AND OR SWAP1 SSTORE DUP8 DUP1 DUP1 DUP1 PUSH2 0x2710 PUSH2 0x95E PUSH2 0xFFFF DUP9 SLOAD AND CALLVALUE PUSH2 0xC61 JUMP JUMPDEST DIV SWAP8 DUP6 PUSH2 0x96B DUP11 CALLVALUE PUSH2 0xC8A JUMP JUMPDEST SWAP2 MLOAD AND GAS CALL PUSH2 0x978 PUSH2 0xCB3 JUMP JUMPDEST POP ISZERO PUSH2 0xA49 JUMPI DUP8 SWAP1 DUP5 DUP1 PUSH2 0x9EE JUMPI JUMPDEST POP POP POP POP DUP1 MLOAD SWAP5 DUP7 DUP7 MSTORE CALLVALUE SWAP1 DUP7 ADD MSTORE DUP5 ADD MSTORE PUSH1 0x44 CALLDATALOAD PUSH1 0x60 DUP5 ADD MSTORE PUSH32 0x98AF1D64B4F23A166017DDACAF1A7098CAB13C894902579DB8CDD22602707B67 PUSH1 0x80 CALLER SWAP5 LOG4 PUSH1 0x1 PUSH32 0x9B779B17422D0DF92223018B32B4D1FA46E071723D6817E2486D003BECC55F00 SSTORE DUP1 RETURN JUMPDEST DUP3 DUP1 SWAP3 SWAP2 DUP2 SWAP3 DUP7 SLOAD PUSH1 0x10 SHR AND GAS CALL PUSH2 0xA04 PUSH2 0xCB3 JUMP JUMPDEST POP ISZERO PUSH2 0xA12 JUMPI DUP7 DUP2 DUP5 PUSH2 0x987 JUMP JUMPDEST DUP6 PUSH1 0x64 SWAP3 MLOAD SWAP2 PUSH3 0x461BCD PUSH1 0xE5 SHL DUP4 MSTORE DUP3 ADD MSTORE PUSH1 0x13 PUSH1 0x24 DUP3 ADD MSTORE PUSH19 0x199959481D1C985B9CD9995C8819985A5B1959 PUSH1 0x6A SHL PUSH1 0x44 DUP3 ADD MSTORE REVERT JUMPDEST POP DUP6 PUSH1 0x64 SWAP3 MLOAD SWAP2 PUSH3 0x461BCD PUSH1 0xE5 SHL DUP4 MSTORE DUP3 ADD MSTORE PUSH1 0x18 PUSH1 0x24 DUP3 ADD MSTORE PUSH32 0x6D65726368616E74207472616E73666572206661696C65640000000000000000 PUSH1 0x44 DUP3 ADD MSTORE REVERT JUMPDEST POP SWAP1 MLOAD PUSH4 0x308BB7FF PUSH1 0xE2 SHL DUP2 MSTORE REVERT JUMPDEST MLOAD PUSH4 0x65C2160B PUSH1 0xE0 SHL DUP2 MSTORE DUP4 SWAP1 REVERT JUMPDEST DUP4 MLOAD PUSH4 0x65E52D51 PUSH1 0xE1 SHL DUP2 MSTORE DUP4 SWAP1 REVERT JUMPDEST DUP4 MLOAD PUSH4 0x15A6BC43 PUSH1 0xE0 SHL DUP2 MSTORE DUP4 SWAP1 REVERT JUMPDEST DUP5 CALLVALUE PUSH2 0x122 JUMPI DUP1 PUSH1 0x3 NOT CALLDATASIZE ADD SLT PUSH2 0x122 JUMPI POP PUSH2 0xFFFF PUSH1 0x20 SWAP3 SLOAD AND DUP2 MSTORE RETURN JUMPDEST PUSH1 0x24 CALLDATALOAD SWAP1 PUSH1 0x1 PUSH1 0x1 PUSH1 0xA0 SHL SUB DUP3 AND DUP3 SUB PUSH2 0xAFD JUMPI JUMP JUMPDEST PUSH1 0x0 DUP1 REVERT JUMPDEST PUSH1 0x44 CALLDATALOAD SWAP1 PUSH1 0x1 PUSH1 0x1 PUSH1 0xA0 SHL SUB DUP3 AND DUP3 SUB PUSH2 0xAFD JUMPI JUMP JUMPDEST PUSH1 0x4 CALLDATALOAD SWAP1 PUSH1 0x1 PUSH1 0x1 PUSH1 0xA0 SHL SUB DUP3 AND DUP3 SUB PUSH2 0xAFD JUMPI JUMP JUMPDEST SWAP1 PUSH1 0x1 DUP3 DUP2 SHR SWAP3 AND DUP1 ISZERO PUSH2 0xB5E JUMPI JUMPDEST PUSH1 0x20 DUP4 LT EQ PUSH2 0xB48 JUMPI JUMP JUMPDEST PUSH4 0x4E487B71 PUSH1 0xE0 SHL PUSH1 0x0 MSTORE PUSH1 0x22 PUSH1 0x4 MSTORE PUSH1 0x24 PUSH1 0x0 REVERT JUMPDEST SWAP2 PUSH1 0x7F AND SWAP2 PUSH2 0xB3D JUMP JUMPDEST PUSH1 0x60 DUP2 ADD SWAP1 DUP2 LT PUSH8 0xFFFFFFFFFFFFFFFF DUP3 GT OR PUSH2 0xB84 JUMPI PUSH1 0x40 MSTORE JUMP JUMPDEST PUSH4 0x4E487B71 PUSH1 0xE0 SHL PUSH1 0x0 MSTORE PUSH1 0x41 PUSH1 0x4 MSTORE PUSH1 0x24 PUSH1 0x0 REVERT JUMPDEST SWAP1 PUSH1 0x1F DUP1 NOT SWAP2 ADD AND DUP2 ADD SWAP1 DUP2 LT PUSH8 0xFFFFFFFFFFFFFFFF DUP3 GT OR PUSH2 0xB84 JUMPI PUSH1 0x40 MSTORE JUMP JUMPDEST SWAP1 PUSH1 0x40 MLOAD SWAP2 DUP3 PUSH1 0x0 DUP3 SLOAD PUSH2 0xBCF DUP2 PUSH2 0xB2E JUMP JUMPDEST SWAP1 DUP2 DUP5 MSTORE PUSH1 0x20 SWAP5 PUSH1 0x1 SWAP2 PUSH1 0x1 DUP2 AND SWAP1 DUP2 PUSH1 0x0 EQ PUSH2 0xC3F JUMPI POP PUSH1 0x1 EQ PUSH2 0xC00 JUMPI JUMPDEST POP POP POP PUSH2 0xBFE SWAP3 POP SUB DUP4 PUSH2 0xB9A JUMP JUMPDEST JUMP JUMPDEST PUSH1 0x0 SWAP1 DUP2 MSTORE DUP6 DUP2 KECCAK256 SWAP6 SWAP4 POP SWAP2 SWAP1 JUMPDEST DUP2 DUP4 LT PUSH2 0xC27 JUMPI POP POP PUSH2 0xBFE SWAP4 POP DUP3 ADD ADD CODESIZE DUP1 DUP1 PUSH2 0xBEF JUMP JUMPDEST DUP6 SLOAD DUP9 DUP5 ADD DUP6 ADD MSTORE SWAP5 DUP6 ADD SWAP5 DUP8 SWAP5 POP SWAP2 DUP4 ADD SWAP2 PUSH2 0xC0E JUMP JUMPDEST SWAP3 POP POP POP PUSH2 0xBFE SWAP5 SWAP3 POP PUSH1 0xFF NOT AND DUP3 DUP5 ADD MSTORE ISZERO ISZERO PUSH1 0x5 SHL DUP3 ADD ADD CODESIZE DUP1 DUP1 PUSH2 0xBEF JUMP JUMPDEST DUP2 DUP2 MUL SWAP3 SWAP2 DUP2 ISZERO SWAP2 DUP5 DIV EQ OR ISZERO PUSH2 0xC74 JUMPI JUMP JUMPDEST PUSH4 0x4E487B71 PUSH1 0xE0 SHL PUSH1 0x0 MSTORE PUSH1 0x11 PUSH1 0x4 MSTORE PUSH1 0x24 PUSH1 0x0 REVERT JUMPDEST SWAP2 SWAP1 DUP3 SUB SWAP2 DUP3 GT PUSH2 0xC74 JUMPI JUMP JUMPDEST PUSH8 0xFFFFFFFFFFFFFFFF DUP2 GT PUSH2 0xB84 JUMPI PUSH1 0x1F ADD PUSH1 0x1F NOT AND PUSH1 0x20 ADD SWAP1 JUMP JUMPDEST RETURNDATASIZE ISZERO PUSH2 0xCDE JUMPI RETURNDATASIZE SWAP1 PUSH2 0xCC4 DUP3 PUSH2 0xC97 JUMP JUMPDEST SWAP2 PUSH2 0xCD2 PUSH1 0x40 MLOAD SWAP4 DUP5 PUSH2 0xB9A JUMP JUMPDEST DUP3 MSTORE RETURNDATASIZE PUSH1 0x0 PUSH1 0x20 DUP5 ADD RETURNDATACOPY JUMP JUMPDEST PUSH1 0x60 SWAP1 JUMP JUMPDEST PUSH32 0x9B779B17422D0DF92223018B32B4D1FA46E071723D6817E2486D003BECC55F00 PUSH1 0x2 DUP2 SLOAD EQ PUSH2 0xD13 JUMPI PUSH1 0x2 SWAP1 SSTORE JUMP JUMPDEST PUSH1 0x40 MLOAD PUSH4 0x3EE5AEB5 PUSH1 0xE0 SHL DUP2 MSTORE PUSH1 0x4 SWAP1 REVERT JUMPDEST PUSH1 0x40 MLOAD PUSH4 0x23B872DD PUSH1 0xE0 SHL PUSH1 0x0 SWAP1 DUP2 MSTORE PUSH1 0x1 PUSH1 0x1 PUSH1 0xA0 SHL SUB SWAP4 DUP5 AND PUSH1 0x4 MSTORE SWAP4 DUP4 AND PUSH1 0x24 MSTORE PUSH1 0x44 SWAP5 SWAP1 SWAP5 MSTORE SWAP1 SWAP2 PUSH1 0x20 SWAP1 PUSH1 0x64 DUP2 DUP1 DUP6 GAS CALL PUSH1 0x1 PUSH1 0x0 MLOAD EQ DUP2 AND ISZERO PUSH2 0xD92 JUMPI JUMPDEST DUP4 PUSH1 0x40 MSTORE PUSH1 0x0 PUSH1 0x60 MSTORE ISZERO PUSH2 0xD7C JUMPI POP POP POP JUMP JUMPDEST PUSH4 0x5274AFE7 PUSH1 0xE0 SHL DUP4 MSTORE AND PUSH1 0x4 DUP3 ADD MSTORE PUSH1 0x24 SWAP2 POP REVERT JUMPDEST PUSH1 0x1 DUP2 ISZERO AND PUSH2 0xDA8 JUMPI DUP2 EXTCODESIZE ISZERO ISZERO RETURNDATASIZE ISZERO AND AND PUSH2 0xD69 JUMP JUMPDEST DUP4 RETURNDATASIZE PUSH1 0x0 DUP3 RETURNDATACOPY RETURNDATASIZE SWAP1 REVERT JUMPDEST PUSH1 0x0 SLOAD PUSH1 0x1 PUSH1 0x1 PUSH1 0xA0 SHL SUB AND CALLER SUB PUSH2 0xDC6 JUMPI JUMP JUMPDEST PUSH1 0x40 MLOAD PUSH4 0x118CDAA7 PUSH1 0xE0 SHL DUP2 MSTORE CALLER PUSH1 0x4 DUP3 ADD MSTORE PUSH1 0x24 SWAP1 REVERT INVALID LOG2 PUSH5 0x6970667358 0x22 SLT KECCAK256 LOG3 PUSH31 0xEA64EA7AFAAB94658FD2EFC14D0DF9FB5BBF9D5045D7577234D6F34F115364 PUSH20 0x6F6C634300081800330000000000000000000000 "},"methodIdentifiers":{"acceptOwnership()":"79ba5097","configureMerchant(address,bool,address,string)":"61078d9f","feeRecipient()":"46904840","merchants(address)":"ee14e939","owner()":"8da5cb5b","payErc20(bytes32,address,address,uint256,bytes32)":"387d87cc","payNative(bytes32,address,bytes32)":"32278aa7","pendingOwner()":"e30c3978","platformFeeBps()":"22dcd13e","renounceOwnership()":"715018a6","setPlatformFee(uint16,address)":"ccad5ff8","settledInvoiceIds(bytes32)":"a43393cf","transferOwnership(address)":"f2fde38b"}}}}}